{
  "_format": "hh-sol-artifact-1",
  "contractName": "RWAToken",
  "sourceName": "contracts/RWAToken.sol",
  "abi": [
    {
      "inputs": [],
      "stateMutability": "nonpayable",
      "type": "constructor"
    },
    {
      "inputs": [
        {
          "internalType": "address",
          "name": "spender",
          "type": "address"
        },
        {
          "internalType": "uint256",
          "name": "allowance",
          "type": "uint256"
        },
        {
          "internalType": "uint256",
          "name": "needed",
          "type": "uint256"
        }
      ],
      "name": "ERC20InsufficientAllowance",
      "type": "error"
    },
    {
      "inputs": [
        {
          "internalType": "address",
          "name": "sender",
          "type": "address"
        },
        {
          "internalType": "uint256",
          "name": "balance",
          "type": "uint256"
        },
        {
          "internalType": "uint256",
          "name": "needed",
          "type": "uint256"
        }
      ],
      "name": "ERC20InsufficientBalance",
      "type": "error"
    },
    {
      "inputs": [
        {
          "internalType": "address",
          "name": "approver",
          "type": "address"
        }
      ],
      "name": "ERC20InvalidApprover",
      "type": "error"
    },
    {
      "inputs": [
        {
          "internalType": "address",
          "name": "receiver",
          "type": "address"
        }
      ],
      "name": "ERC20InvalidReceiver",
      "type": "error"
    },
    {
      "inputs": [
        {
          "internalType": "address",
          "name": "sender",
          "type": "address"
        }
      ],
      "name": "ERC20InvalidSender",
      "type": "error"
    },
    {
      "inputs": [
        {
          "internalType": "address",
          "name": "spender",
          "type": "address"
        }
      ],
      "name": "ERC20InvalidSpender",
      "type": "error"
    },
    {
      "inputs": [
        {
          "internalType": "address",
          "name": "owner",
          "type": "address"
        }
      ],
      "name": "OwnableInvalidOwner",
      "type": "error"
    },
    {
      "inputs": [
        {
          "internalType": "address",
          "name": "account",
          "type": "address"
        }
      ],
      "name": "OwnableUnauthorizedAccount",
      "type": "error"
    },
    {
      "inputs": [],
      "name": "ReentrancyGuardReentrantCall",
      "type": "error"
    },
    {
      "anonymous": false,
      "inputs": [
        {
          "indexed": true,
          "internalType": "address",
          "name": "owner",
          "type": "address"
        },
        {
          "indexed": true,
          "internalType": "address",
          "name": "spender",
          "type": "address"
        },
        {
          "indexed": false,
          "internalType": "uint256",
          "name": "value",
          "type": "uint256"
        }
      ],
      "name": "Approval",
      "type": "event"
    },
    {
      "anonymous": false,
      "inputs": [
        {
          "indexed": true,
          "internalType": "address",
          "name": "previousOwner",
          "type": "address"
        },
        {
          "indexed": true,
          "internalType": "address",
          "name": "newOwner",
          "type": "address"
        }
      ],
      "name": "OwnershipTransferred",
      "type": "event"
    },
    {
      "anonymous": false,
      "inputs": [
        {
          "indexed": true,
          "internalType": "address",
          "name": "buyer",
          "type": "address"
        },
        {
          "indexed": false,
          "internalType": "uint256",
          "name": "ethAmount",
          "type": "uint256"
        },
        {
          "indexed": false,
          "internalType": "uint256",
          "name": "tokenAmount",
          "type": "uint256"
        }
      ],
      "name": "TokensPurchased",
      "type": "event"
    },
    {
      "anonymous": false,
      "inputs": [
        {
          "indexed": true,
          "internalType": "address",
          "name": "from",
          "type": "address"
        },
        {
          "indexed": true,
          "internalType": "address",
          "name": "to",
          "type": "address"
        },
        {
          "indexed": false,
          "internalType": "uint256",
          "name": "value",
          "type": "uint256"
        }
      ],
      "name": "Transfer",
      "type": "event"
    },
    {
      "inputs": [],
      "name": "TOKEN_PRICE",
      "outputs": [
        {
          "internalType": "uint256",
          "name": "",
          "type": "uint256"
        }
      ],
      "stateMutability": "view",
      "type": "function"
    },
    {
      "inputs": [
        {
          "internalType": "address",
          "name": "account",
          "type": "address"
        }
      ],
      "name": "addToWhitelist",
      "outputs": [],
      "stateMutability": "nonpayable",
      "type": "function"
    },
    {
      "inputs": [
        {
          "internalType": "address",
          "name": "owner",
          "type": "address"
        },
        {
          "internalType": "address",
          "name": "spender",
          "type": "address"
        }
      ],
      "name": "allowance",
      "outputs": [
        {
          "internalType": "uint256",
          "name": "",
          "type": "uint256"
        }
      ],
      "stateMutability": "view",
      "type": "function"
    },
    {
      "inputs": [
        {
          "internalType": "address",
          "name": "spender",
          "type": "address"
        },
        {
          "internalType": "uint256",
          "name": "value",
          "type": "uint256"
        }
      ],
      "name": "approve",
      "outputs": [
        {
          "internalType": "bool",
          "name": "",
          "type": "bool"
        }
      ],
      "stateMutability": "nonpayable",
      "type": "function"
    },
    {
      "inputs": [
        {
          "internalType": "address",
          "name": "account",
          "type": "address"
        }
      ],
      "name": "balanceOf",
      "outputs": [
        {
          "internalType": "uint256",
          "name": "",
          "type": "uint256"
        }
      ],
      "stateMutability": "view",
      "type": "function"
    },
    {
      "inputs": [],
      "name": "buyTokens",
      "outputs": [],
      "stateMutability": "payable",
      "type": "function"
    },
    {
      "inputs": [],
      "name": "decimals",
      "outputs": [
        {
          "internalType": "uint8",
          "name": "",
          "type": "uint8"
        }
      ],
      "stateMutability": "view",
      "type": "function"
    },
    {
      "inputs": [],
      "name": "name",
      "outputs": [
        {
          "internalType": "string",
          "name": "",
          "type": "string"
        }
      ],
      "stateMutability": "view",
      "type": "function"
    },
    {
      "inputs": [],
      "name": "owner",
      "outputs": [
        {
          "internalType": "address",
          "name": "",
          "type": "address"
        }
      ],
      "stateMutability": "view",
      "type": "function"
    },
    {
      "inputs": [
        {
          "internalType": "address",
          "name": "account",
          "type": "address"
        }
      ],
      "name": "removeFromWhitelist",
      "outputs": [],
      "stateMutability": "nonpayable",
      "type": "function"
    },
    {
      "inputs": [],
      "name": "renounceOwnership",
      "outputs": [],
      "stateMutability": "nonpayable",
      "type": "function"
    },
    {
      "inputs": [],
      "name": "symbol",
      "outputs": [
        {
          "internalType": "string",
          "name": "",
          "type": "string"
        }
      ],
      "stateMutability": "view",
      "type": "function"
    },
    {
      "inputs": [],
      "name": "totalSupply",
      "outputs": [
        {
          "internalType": "uint256",
          "name": "",
          "type": "uint256"
        }
      ],
      "stateMutability": "view",
      "type": "function"
    },
    {
      "inputs": [
        {
          "internalType": "address",
          "name": "to",
          "type": "address"
        },
        {
          "internalType": "uint256",
          "name": "value",
          "type": "uint256"
        }
      ],
      "name": "transfer",
      "outputs": [
        {
          "internalType": "bool",
          "name": "",
          "type": "bool"
        }
      ],
      "stateMutability": "nonpayable",
      "type": "function"
    },
    {
      "inputs": [
        {
          "internalType": "address",
          "name": "from",
          "type": "address"
        },
        {
          "internalType": "address",
          "name": "to",
          "type": "address"
        },
        {
          "internalType": "uint256",
          "name": "value",
          "type": "uint256"
        }
      ],
      "name": "transferFrom",
      "outputs": [
        {
          "internalType": "bool",
          "name": "",
          "type": "bool"
        }
      ],
      "stateMutability": "nonpayable",
      "type": "function"
    },
    {
      "inputs": [
        {
          "internalType": "address",
          "name": "newOwner",
          "type": "address"
        }
      ],
      "name": "transferOwnership",
      "outputs": [],
      "stateMutability": "nonpayable",
      "type": "function"
    },
    {
      "inputs": [
        {
          "internalType": "address",
          "name": "",
          "type": "address"
        }
      ],
      "name": "whitelisted",
      "outputs": [
        {
          "internalType": "bool",
          "name": "",
          "type": "bool"
        }
      ],
      "stateMutability": "view",
      "type": "function"
    },
    {
      "inputs": [],
      "name": "withdrawEth",
      "outputs": [],
      "stateMutability": "nonpayable",
      "type": "function"
    }
  ],
  "bytecode": "0x60806040523480156200001157600080fd5b50336040518060400160405280600f81526020016e26b7a430b710292ba0902a37b5b2b760891b8152506040518060400160405280600381526020016213521560ea1b8152508160039081620000689190620001d6565b506004620000778282620001d6565b5050506001600160a01b038116620000a957604051631e4fbdf760e01b81526000600482015260240160405180910390fd5b620000b481620000df565b5060017f9b779b17422d0df92223018b32b4d1fa46e071723d6817e2486d003becc55f0055620002a2565b600580546001600160a01b038381166001600160a01b0319831681179093556040519116919082907f8be0079c531659141344cd1fd0a4f28419497f9722a3daafe3b4186f6b6457e090600090a35050565b634e487b7160e01b600052604160045260246000fd5b600181811c908216806200015c57607f821691505b6020821081036200017d57634e487b7160e01b600052602260045260246000fd5b50919050565b601f821115620001d157600081815260208120601f850160051c81016020861015620001ac5750805b601f850160051c820191505b81811015620001cd57828155600101620001b8565b5050505b505050565b81516001600160401b03811115620001f257620001f262000131565b6200020a8162000203845462000147565b8462000183565b602080601f831160018114620002425760008415620002295750858301515b600019600386901b1c1916600185901b178555620001cd565b600085815260208120601f198616915b82811015620002735788860151825594840194600190910190840162000252565b5085821015620002925787850151600019600388901b60f8161c191681555b5050505050600190811b01905550565b610ec080620002b26000396000f3fe6080604052600436106101095760003560e01c806395d89b4111610095578063d2d8cb6711610064578063d2d8cb67146102ab578063d936547e146102c6578063dd62ed3e146102f6578063e43252d71461033c578063f2fde38b1461035c57600080fd5b806395d89b4114610259578063a0ef91df1461026e578063a9059cbb14610283578063d0febe4c146102a357600080fd5b8063313ce567116100dc578063313ce567146101a857806370a08231146101c4578063715018a6146101fa5780638ab1d681146102115780638da5cb5b1461023157600080fd5b806306fdde031461010e578063095ea7b31461013957806318160ddd1461016957806323b872dd14610188575b600080fd5b34801561011a57600080fd5b5061012361037c565b6040516101309190610bd6565b60405180910390f35b34801561014557600080fd5b50610159610154366004610c40565b61040e565b6040519015158152602001610130565b34801561017557600080fd5b506002545b604051908152602001610130565b34801561019457600080fd5b506101596101a3366004610c6a565b610428565b3480156101b457600080fd5b5060405160128152602001610130565b3480156101d057600080fd5b5061017a6101df366004610ca6565b6001600160a01b031660009081526020819052604090205490565b34801561020657600080fd5b5061020f61044c565b005b34801561021d57600080fd5b5061020f61022c366004610ca6565b610460565b34801561023d57600080fd5b506005546040516001600160a01b039091168152602001610130565b34801561026557600080fd5b50610123610489565b34801561027a57600080fd5b5061020f610498565b34801561028f57600080fd5b5061015961029e366004610c40565b610526565b61020f610534565b3480156102b757600080fd5b5061017a662386f26fc1000081565b3480156102d257600080fd5b506101596102e1366004610ca6565b60066020526000908152604090205460ff1681565b34801561030257600080fd5b5061017a610311366004610cc8565b6001600160a01b03918216600090815260016020908152604080832093909416825291909152205490565b34801561034857600080fd5b5061020f610357366004610ca6565b6106c0565b34801561036857600080fd5b5061020f610377366004610ca6565b6106ec565b60606003805461038b90610cfb565b80601f01602080910402602001604051908101604052809291908181526020018280546103b790610cfb565b80156104045780601f106103d957610100808354040283529160200191610404565b820191906000526020600020905b8154815290600101906020018083116103e757829003601f168201915b5050505050905090565b60003361041c81858561072a565b60019150505b92915050565b60003361043685828561073c565b6104418585856107bb565b506001949350505050565b61045461081a565b61045e6000610847565b565b61046861081a565b6001600160a01b03166000908152600660205260409020805460ff19169055565b60606004805461038b90610cfb565b6104a061081a565b47806104e85760405162461bcd60e51b81526020600482015260126024820152714e6f2045544820746f20776974686472617760701b60448201526064015b60405180910390fd5b6005546040516001600160a01b039091169082156108fc029083906000818181858888f19350505050158015610522573d6000803e3d6000fd5b5050565b60003361041c8185856107bb565b61053c610899565b600034116105855760405162461bcd60e51b8152602060048201526016602482015275045544820616d6f756e74206d757374206265203e20360541b60448201526064016104df565b3360009081526006602052604090205460ff166105dc5760405162461bcd60e51b8152602060048201526015602482015274109d5e595c881b9bdd081dda1a5d195b1a5cdd1959605a1b60448201526064016104df565b6000662386f26fc100006105f26012600a610e2f565b6105fc9034610e3e565b6106069190610e55565b9050600081116106515760405162461bcd60e51b8152602060048201526016602482015275151bdad95b88185b5bdd5b9d081d1bdbc81cdb585b1b60521b60448201526064016104df565b61065b33826108c7565b604080513481526020810183905233917f8fafebcaf9d154343dad25669bfa277f4fbacd7ac6b0c4fed522580e040a0f33910160405180910390a25061045e60017f9b779b17422d0df92223018b32b4d1fa46e071723d6817e2486d003becc55f0055565b6106c861081a565b6001600160a01b03166000908152600660205260409020805460ff19166001179055565b6106f461081a565b6001600160a01b03811661071e57604051631e4fbdf760e01b8152600060048201526024016104df565b61072781610847565b50565b61073783838360016108fd565b505050565b6001600160a01b038381166000908152600160209081526040808320938616835292905220546000198110156107b557818110156107a657604051637dc7a0d960e11b81526001600160a01b038416600482015260248101829052604481018390526064016104df565b6107b5848484840360006108fd565b50505050565b6001600160a01b0383166107e557604051634b637e8f60e11b8152600060048201526024016104df565b6001600160a01b03821661080f5760405163ec442f0560e01b8152600060048201526024016104df565b6107378383836109d2565b6005546001600160a01b0316331461045e5760405163118cdaa760e01b81523360048201526024016104df565b600580546001600160a01b038381166001600160a01b0319831681179093556040519116919082907f8be0079c531659141344cd1fd0a4f28419497f9722a3daafe3b4186f6b6457e090600090a35050565b6108a1610a6a565b60027f9b779b17422d0df92223018b32b4d1fa46e071723d6817e2486d003becc55f0055565b6001600160a01b0382166108f15760405163ec442f0560e01b8152600060048201526024016104df565b610522600083836109d2565b6001600160a01b0384166109275760405163e602df0560e01b8152600060048201526024016104df565b6001600160a01b03831661095157604051634a1406b160e11b8152600060048201526024016104df565b6001600160a01b03808516600090815260016020908152604080832093871683529290522082905580156107b557826001600160a01b0316846001600160a01b03167f8c5be1e5ebec7d5bd14f71427d1e84f3dd0314c0f7b2291e5b200ac8c7c3b925846040516109c491815260200190565b60405180910390a350505050565b6001600160a01b038316158015906109f257506001600160a01b03821615155b15610a5f576001600160a01b03821660009081526006602052604090205460ff16610a5f5760405162461bcd60e51b815260206004820152601860248201527f5265636569766572206e6f742077686974656c6973746564000000000000000060448201526064016104df565b610737838383610aac565b7f9b779b17422d0df92223018b32b4d1fa46e071723d6817e2486d003becc55f005460020361045e57604051633ee5aeb560e01b815260040160405180910390fd5b6001600160a01b038316610ad7578060026000828254610acc9190610e77565b90915550610b499050565b6001600160a01b03831660009081526020819052604090205481811015610b2a5760405163391434e360e21b81526001600160a01b038516600482015260248101829052604481018390526064016104df565b6001600160a01b03841660009081526020819052604090209082900390555b6001600160a01b038216610b6557600280548290039055610b84565b6001600160a01b03821660009081526020819052604090208054820190555b816001600160a01b0316836001600160a01b03167fddf252ad1be2c89b69c2b068fc378daa952ba7f163c4a11628f55a4df523b3ef83604051610bc991815260200190565b60405180910390a3505050565b600060208083528351808285015260005b81811015610c0357858101830151858201604001528201610be7565b506000604082860101526040601f19601f8301168501019250505092915050565b80356001600160a01b0381168114610c3b57600080fd5b919050565b60008060408385031215610c5357600080fd5b610c5c83610c24565b946020939093013593505050565b600080600060608486031215610c7f57600080fd5b610c8884610c24565b9250610c9660208501610c24565b9150604084013590509250925092565b600060208284031215610cb857600080fd5b610cc182610c24565b9392505050565b60008060408385031215610cdb57600080fd5b610ce483610c24565b9150610cf260208401610c24565b90509250929050565b600181811c90821680610d0f57607f821691505b602082108103610d2f57634e487b7160e01b600052602260045260246000fd5b50919050565b634e487b7160e01b600052601160045260246000fd5b600181815b80851115610d86578160001904821115610d6c57610d6c610d35565b80851615610d7957918102915b93841c9390800290610d50565b509250929050565b600082610d9d57506001610422565b81610daa57506000610422565b8160018114610dc05760028114610dca57610de6565b6001915050610422565b60ff841115610ddb57610ddb610d35565b50506001821b610422565b5060208310610133831016604e8410600b8410161715610e09575081810a610422565b610e138383610d4b565b8060001904821115610e2757610e27610d35565b029392505050565b6000610cc160ff841683610d8e565b808202811582820484141761042257610422610d35565b600082610e7257634e487b7160e01b600052601260045260246000fd5b500490565b8082018082111561042257610422610d3556fea26469706673582212206c3f10d5c9cb790cfd897d2df74bc49ffc14ff01ec41e7452080c73feb06b7a864736f6c63430008140033",
  "linkReferences": {},
  "deployedLinkReferences": {}
}